{
  "_format": "hh-sol-artifact-1",
  "contractName": "votings",
  "sourceName": "contracts/votings.sol",
  "abi": [
    {
      "inputs": [],
      "stateMutability": "nonpayable",
      "type": "constructor"
    },
    {
      "inputs": [
        {
          "internalType": "uint256",
          "name": "_id",
          "type": "uint256"
        }
      ],
      "name": "addCandidate",
      "outputs": [],
      "stateMutability": "nonpayable",
      "type": "function"
    },
    {
      "inputs": [
        {
          "internalType": "uint256",
          "name": "_id",
          "type": "uint256"
        }
      ],
      "name": "giveVote",
      "outputs": [],
      "stateMutability": "nonpayable",
      "type": "function"
    },
    {
      "inputs": [
        {
          "internalType": "uint256",
          "name": "_id",
          "type": "uint256"
        }
      ],
      "name": "viewVotes",
      "outputs": [
        {
          "internalType": "uint256",
          "name": "",
          "type": "uint256"
        }
      ],
      "stateMutability": "view",
      "type": "function"
    }
  ],
  "bytecode": "0x608060405234801561001057600080fd5b50336000806101000a81548173ffffffffffffffffffffffffffffffffffffffff021916908373ffffffffffffffffffffffffffffffffffffffff160217905550610382806100606000396000f3fe608060405234801561001057600080fd5b50600436106100415760003560e01c80637f178f2e14610046578063a002f6ed14610062578063e844d09714610092575b600080fd5b610060600480360381019061005b91906101e3565b6100ae565b005b61007c600480360381019061007791906101e3565b6100dd565b604051610089919061025e565b60405180910390f35b6100ac60048036038101906100a791906101e3565b6100fd565b005b6001600082815260200190815260200160002060010160008154809291906100d590610294565b919050555050565b600060016000838152602001908152602001600020600101549050919050565b3373ffffffffffffffffffffffffffffffffffffffff1660008054906101000a900473ffffffffffffffffffffffffffffffffffffffff1673ffffffffffffffffffffffffffffffffffffffff161461018b576040517f08c379a00000000000000000000000000000000000000000000000000000000081526004016101829061023e565b60405180910390fd5b6040518060400160405280828152602001600081525060016000838152602001908152602001600020600082015181600001556020820151816001015590505050565b6000813590506101dd81610335565b92915050565b6000602082840312156101f557600080fd5b6000610203848285016101ce565b91505092915050565b6000610219600c83610279565b91506102248261030c565b602082019050919050565b6102388161028a565b82525050565b600060208201905081810360008301526102578161020c565b9050919050565b6000602082019050610273600083018461022f565b92915050565b600082825260208201905092915050565b6000819050919050565b600061029f8261028a565b91507fffffffffffffffffffffffffffffffffffffffffffffffffffffffffffffffff8214156102d2576102d16102dd565b5b600182019050919050565b7f4e487b7100000000000000000000000000000000000000000000000000000000600052601160045260246000fd5b7f4e6f7420616e206f776e65720000000000000000000000000000000000000000600082015250565b61033e8161028a565b811461034957600080fd5b5056fea26469706673582212207c8707594ffea3e1d0decf0f306cce4e8fe8b8d66f4e2b1f80b6ce038d50b3ee64736f6c63430008010033",
  "linkReferences": {},
  "deployedLinkReferences": {}
}