{
  "_format": "hh-sol-artifact-1",
  "contractName": "newVoting",
  "sourceName": "contracts/newVoting.sol",
  "abi": [
    {
      "inputs": [],
      "stateMutability": "nonpayable",
      "type": "constructor"
    },
    {
      "inputs": [
        {
          "internalType": "uint256",
          "name": "_id",
          "type": "uint256"
        }
      ],
      "name": "addCandidate",
      "outputs": [],
      "stateMutability": "nonpayable",
      "type": "function"
    },
    {
      "inputs": [
        {
          "internalType": "address",
          "name": "_voterAddress",
          "type": "address"
        }
      ],
      "name": "addVoter",
      "outputs": [],
      "stateMutability": "nonpayable",
      "type": "function"
    },
    {
      "inputs": [
        {
          "internalType": "uint256",
          "name": "_id",
          "type": "uint256"
        }
      ],
      "name": "giveVote",
      "outputs": [],
      "stateMutability": "nonpayable",
      "type": "function"
    },
    {
      "inputs": [
        {
          "internalType": "uint256",
          "name": "_id",
          "type": "uint256"
        }
      ],
      "name": "viewVotes",
      "outputs": [
        {
          "internalType": "uint256",
          "name": "",
          "type": "uint256"
        }
      ],
      "stateMutability": "view",
      "type": "function"
    },
    {
      "inputs": [
        {
          "internalType": "address",
          "name": "",
          "type": "address"
        }
      ],
      "name": "voters",
      "outputs": [
        {
          "internalType": "address",
          "name": "voterAddress",
          "type": "address"
        },
        {
          "internalType": "bool",
          "name": "isVoted",
          "type": "bool"
        }
      ],
      "stateMutability": "view",
      "type": "function"
    }
  ],
  "bytecode": "0x608060405234801561001057600080fd5b50336000806101000a81548173ffffffffffffffffffffffffffffffffffffffff021916908373ffffffffffffffffffffffffffffffffffffffff160217905550610913806100606000396000f3fe608060405234801561001057600080fd5b50600436106100575760003560e01c80637f178f2e1461005c578063a002f6ed14610078578063a3ec138d146100a8578063e844d097146100d9578063f4ab9adf146100f5575b600080fd5b61007660048036038101906100719190610600565b610111565b005b610092600480360381019061008d9190610600565b610303565b60405161009f9190610748565b60405180910390f35b6100c260048036038101906100bd91906105d7565b610323565b6040516100d09291906106bf565b60405180910390f35b6100f360048036038101906100ee9190610600565b610374565b005b61010f600480360381019061010a91906105d7565b610445565b005b600073ffffffffffffffffffffffffffffffffffffffff16600260003373ffffffffffffffffffffffffffffffffffffffff1673ffffffffffffffffffffffffffffffffffffffff16815260200190815260200160002060000160009054906101000a900473ffffffffffffffffffffffffffffffffffffffff1673ffffffffffffffffffffffffffffffffffffffff1614156101e3576040517f08c379a00000000000000000000000000000000000000000000000000000000081526004016101da906106e8565b60405180910390fd5b60001515600260003373ffffffffffffffffffffffffffffffffffffffff1673ffffffffffffffffffffffffffffffffffffffff16815260200190815260200160002060000160149054906101000a900460ff16151514610279576040517f08c379a000000000000000000000000000000000000000000000000000000000815260040161027090610728565b60405180910390fd5b6001600082815260200190815260200160002060010160008154809291906102a0906107bc565b91905055506001600260003373ffffffffffffffffffffffffffffffffffffffff1673ffffffffffffffffffffffffffffffffffffffff16815260200190815260200160002060000160146101000a81548160ff02191690831515021790555050565b600060016000838152602001908152602001600020600101549050919050565b60026020528060005260406000206000915090508060000160009054906101000a900473ffffffffffffffffffffffffffffffffffffffff16908060000160149054906101000a900460ff16905082565b3373ffffffffffffffffffffffffffffffffffffffff1660008054906101000a900473ffffffffffffffffffffffffffffffffffffffff1673ffffffffffffffffffffffffffffffffffffffff1614610402576040517f08c379a00000000000000000000000000000000000000000000000000000000081526004016103f990610708565b60405180910390fd5b6040518060400160405280828152602001600081525060016000838152602001908152602001600020600082015181600001556020820151816001015590505050565b3373ffffffffffffffffffffffffffffffffffffffff1660008054906101000a900473ffffffffffffffffffffffffffffffffffffffff1673ffffffffffffffffffffffffffffffffffffffff16146104d3576040517f08c379a00000000000000000000000000000000000000000000000000000000081526004016104ca90610708565b60405180910390fd5b60405180604001604052808273ffffffffffffffffffffffffffffffffffffffff16815260200160001515815250600260008373ffffffffffffffffffffffffffffffffffffffff1673ffffffffffffffffffffffffffffffffffffffff16815260200190815260200160002060008201518160000160006101000a81548173ffffffffffffffffffffffffffffffffffffffff021916908373ffffffffffffffffffffffffffffffffffffffff16021790555060208201518160000160146101000a81548160ff02191690831515021790555090505050565b6000813590506105bc816108af565b92915050565b6000813590506105d1816108c6565b92915050565b6000602082840312156105e957600080fd5b60006105f7848285016105ad565b91505092915050565b60006020828403121561061257600080fd5b6000610620848285016105c2565b91505092915050565b61063281610774565b82525050565b61064181610786565b82525050565b6000610654601483610763565b915061065f82610834565b602082019050919050565b6000610677602083610763565b91506106828261085d565b602082019050919050565b600061069a601883610763565b91506106a582610886565b602082019050919050565b6106b9816107b2565b82525050565b60006040820190506106d46000830185610629565b6106e16020830184610638565b9392505050565b6000602082019050818103600083015261070181610647565b9050919050565b600060208201905081810360008301526107218161066a565b9050919050565b600060208201905081810360008301526107418161068d565b9050919050565b600060208201905061075d60008301846106b0565b92915050565b600082825260208201905092915050565b600061077f82610792565b9050919050565b60008115159050919050565b600073ffffffffffffffffffffffffffffffffffffffff82169050919050565b6000819050919050565b60006107c7826107b2565b91507fffffffffffffffffffffffffffffffffffffffffffffffffffffffffffffffff8214156107fa576107f9610805565b5b600182019050919050565b7f4e487b7100000000000000000000000000000000000000000000000000000000600052601160045260246000fd5b7f4f6e6c7920566f746572732063616e20766f7465000000000000000000000000600082015250565b7f4f6e6c79204f776e65722063616e20656e726f6c6c2063616e64696461746573600082015250565b7f4f6e6c79206f6e6520766f746520697320616c6c6f7765640000000000000000600082015250565b6108b881610774565b81146108c357600080fd5b50565b6108cf816107b2565b81146108da57600080fd5b5056fea2646970667358221220db7b823aa95a41c0adfbe76c2310b2b14ea9927e540e3bdfcf73ca670e50c2be64736f6c63430008010033",
  "linkReferences": {},
  "deployedLinkReferences": {}
}